:0400000080311D2806
:100008007E14803140017F08F8004E01961A8C1E3C
:100018001128A1314E21803118280B1B991E182850
:100028008F1E1828A131A72178084001FF007E10F3
:10003800090080311F28E1308400A2308500A030FB
:100048008600013087002B30A031A2208031F001DA
:10005800F101F201F901FA01B9308400003085009C
:100068001730A0319C208031203084000130850079
:100078004930A0319C208031CB308400013085008C
:100088002030A0319C207E1040019A312D2A400159
:100098000D1C78280F1782304101B300DD30890B21
:1000A8005328B30B5328003240010D1C76288430A6
:1000B800AC00A830AD0080304101B30033084001E6
:1000C800AE00A2319722803106304101B4001330CE
:1000D800B300AD30890B6E28B30B6E28B40B6E28B5
:1000E8000032F01640017928F0120F13F21FF01AAF
:1000F800952AF2170F1241014108B3003308420153
:10010800E70041014F084201BF0041014E0842018A
:10011800BE0041014D084201BD0041014C084201A9
:10012800BC0041014B084201BB0041014A084201A1
:10013800BA00410149084201B90041014808420199
:10014800B800023041014106031D4129721F721A8D
:10015800B22892311022803172164829721B721A05
:100168003A29721600304001AF000030AE0000306E
:10017800AD006430AC0041014F084001A3004101CB
:100188004E084001A20041014D084001A100410173
:100198004C084001A0000030A7000030A600003045
:1001A800A5001130A400A331392380314001230870
:1001B800B3002208B2002108B1002008B000A6311F
:1001C8003926803140012F084201BF0040012E0826
:1001D8004201BE0040012D084201BD0040012C082B
:1001E8004201BC0000304001AF000030AE000030DA
:1001F800AD006430AC0041014B084001A30041014F
:100208004A084001A200410149084001A1004101FA
:1002180048084001A0000030A7000030A6000030C8
:10022800A5001130A400A3313923803140012308EF
:10023800B3002208B2002108B1002008B000A6319E
:100248003926803140012F084201BB0040012E08A9
:100258004201BA0040012D084201B90040012C08B2
:100268004201B8009231102280314929721B721E56
:1002780049298831FA2080314929F2167213F21778
:100288009C31472480317212F21106304101B400CA
:100298001330B300AD30890B4F29B30B4F29B40B82
:1002A8004F29003206304101B4001330B300AD309D
:1002B800890B5C29B30B5C29B40B5C2900328B17C2
:1002C800F213922A40010D1C912982304101B3009A
:1002D800DD30890B6D29B30B6D29003240010D1CEF
:1002E80092298430AC00A830AD0080304101B300C1
:1002F80033084001AE00A231972280310630410117
:10030800B4001330B300AD30890B8829B30B8829AA
:10031800B40B88290032F0169229F012F21FF01A55
:10032800952AF21741014108B30033084201E7005A
:10033800721EBD2941014F084201BF0041014E080C
:100348004201BE0041014D084201BD0041014C0877
:100358004201BC0041014B084201BB0041014A086F
:100368004201BA00410149084201B9004101480867
:100378003B2A00304001AF000030AE000030AD0035
:100388006430AC0041014F084001A30041014E0810
:100398004001A20041014D084001A10041014C0863
:1003A8004001A0000030A7000030A6000030A500E2
:1003B8004830A400A3313923803140012308B30019
:1003C8002208B2002108B1002008B000A631392661
:1003D800803140012F084201BF0040012E08420130
:1003E800BE0040012D084201BD0040012C08420119
:1003F800BC0000304001AF000030AE000030AD005E
:100408006430AC0041014B084001A30041014A0897
:100418004001A200410149084001A10041014808EA
:100428004001A0000030A7000030A6000030A50061
:100438004830A400A3313923803140012308B30098
:100448002208B2002108B1002008B000A6313926E0
:10045800803140012F084201BB0040012E084201B3
:10046800BA0040012D084201B90040012C084201A0
:10047800B800023041014106031D892A721FF21992
:100488005A2A4001A901C030A4315E2480314101BB
:1004980040084001AD0041013F084001AC00A631D1
:1004A800BB2680319231102280316E2A4001A90189
:1004B800C030A4315E248031410140084001AD00C4
:1004C80041013F084001AC00A631BB26803188318C
:1004D800FA20803106304101B4001330B300AD304A
:1004E800890B742AB30B742AB40B742A00320630B1
:1004F8004101B4001330B300AD30890B812AB30B2E
:10050800812AB40B812A0032912AF2167213F2174B
:100518009C31472480317212F2118B178B170B17FD
:10052800452FF012452F72114201DC01DD01A03187
:100538008D208031043042016602031CA52AE601A1
:100548006B2B01304101B30033084201E6076B2BE6
:1005580041014108B300B40133084001A200410140
:1005680034084001A3000430A731412780314001FD
:10057800A901C030A4315E2480314001A9010F30A7
:10058800A4315E24803102304101B4008630B300CA
:100598009930890BCD2AB30BCD2AB40BCD2A452F20
:1005A800410140084001A30041013F084001A20069
:1005B8000030A731412780314001A901C430A4315E
:1005C8005E2480314001A9010F30A4315E248031BE
:1005D80002304101B4008630B3009930890BF22A09
:1005E800B30BF22AB40BF22A452F41014D08400102
:1005F800A30041014C084001A2000130A731412766
:1006080080314001A901C830A4315E248031400105
:10061800A9010F30A4315E24803102304101B400B9
:100628008630B3009930890B172BB30B172BB40BFB
:10063800172B452F410149084001A30041014808F3
:100648004001A2000230A731412780314001A901B1
:10065800CC30A4315E2480314001A9010F30A4318F
:100668005E24803102304101B4008630B3009930F5
:10067800890B3C2BB30B3C2BB40B3C2B452F410176
:100688004208B300B40133084001A2004101340814
:100698004001A3000330A731412780314001A9015F
:1006A800CF30A4315E2480314001A9010F30A4313C
:1006B8005E24803102304101B4008630B3009930A5
:1006C800890B642BB30B642BB40B642B452F4201AD
:1006D80066088400053004020318452FA03104354C
:1006E800003E8200452F0230410140029530031937
:1006F8003F020318832B0130BF070030C03D400183
:10070800A901C030A4315E24803141014008400174
:10071800AD0041013F084001AC00A631BB26803145
:100728004001A901C030A4315E2480314001A901F3
:100738000F30A4315E24803102304101B40086308C
:10074800B3009930890BA62BB30BA62BB40BA62BA1
:10075800F21FD72B41014108031DC52B0030400172
:10076800A000A100A231542280314101400840017B
:10077800A10041013F084001A000A231352280318B
:10078800D72B00304001A000A100A23135228031D2
:10079800410140084001A10041013F084001A0007B
:1007A800A23154228031410140084001A300410197
:1007B8003F084001A2000030A73141278031452F72
:1007C8004101CF1BF32B4F08031DFB2B4E08031DC4
:1007D800FB2BDC304C0205304D3B0318FB2B013062
:1007E800CC070030CD3D0030CE3D0030CF3D40013C
:1007F800A901C330A4315E24803141014F08400172
:10080800BB0041014E084001BA0041014D084001BA
:10081800B90041014C084001B8009E31B82680312A
:100828004001A901C330A4315E2480314001A901EF
:100838000F30A4315E24803102304101B40086308B
:10084800B3009930890B262CB30B262CB40B262C1D
:1008580041014D084001A30041014C084001A2009C
:100868000130A73141278031452F4101CB1B482C4E
:100878004B08031D502C4A08031D502CDC3048023D
:100888000530493B0318502C0130C8070030C93DDA
:100898000030CA3D0030CB3D4001A901C830A43129
:1008A8005E24803141014B084001BB0041014A08E8
:1008B8004001BA00410149084001B9004101480816
:1008C8004001B8009E31B82680314001A901C830E6
:1008D800A4315E2480314001A9010F30A4315E2487
:1008E800803102304101B4008630B3009930890B61
:1008F8007B2CB30B7B2CB40B7B2C410149084001AA
:10090800A300410148084001A2000230A731412755
:100918008031452F643041014202031C982C63301A
:10092800B3003308C2009C2C0130B3003308C2075F
:100938004001A901CC30A4315E2480314101420834
:10094800A3319E2380314001A901CC30A4315E241B
:1009580080314001A9010F30A4315E24803102307A
:100968004101B4008630B3009930890BB92CB30B20
:10097800B92CB40BB92C41014208B300B4013308B7
:100988004201D600410134084201D7004101420822
:10099800B300B40133084001A2004101340840010A
:1009A800A3000330A73141278031452F033041018F
:1009B80041020318E42C0130B3003308C107132D9A
:1009C800C101132DBC304001AC00A830AD00CF30C0
:1009D8004101B30033084001AE00A23197228031B3
:1009E8001F2DBA304001AC00A830AD00CF30410116
:1009F800B30033084001AE00A231972280311F2D89
:100A0800BE304001AC00A830AD00CF304101B3008A
:100A180033084001AE00A231972280311F2D4101D9
:100A28004108003A0319E62C013A0319F52C033A58
:100A38000319042D1F2D4001A901CF30A4315E24D4
:100A480080314001A9010F30A4315E248031023089
:100A58004101B4008630B3009930890B312DB30BB6
:100A6800312DB40B312D41014108B300B4013308D5
:100A78004001A200410134084001A3000430A7311D
:100A880041278031452F4201660884000530040261
:100A98000318452FA03104350A3E8200452F410135
:100AA8003F08400403195C2D0130BF020030C03BF1
:100AB8004001A901C030A4315E24803141014008C1
:100AC8004001AD0041013F084001AC00A631BB2602
:100AD80080314001A901C030A4315E248031400139
:100AE800A9010F30A4315E24803102304101B400E5
:100AF8008630B3009930890B7F2DB30B7F2DB40B53
:100B08007F2DF21FB02D41014108031D9E2D00309D
:100B18004001A000A100A2315422803141014008C7
:100B28004001A10041013F084001A000A231352247
:100B38008031B02D00304001A000A100A231352243
:100B48008031410140084001A10041013F084001B6
:100B5800A000A23154228031410140084001A30085
:100B680041013F084001A2000030A73141278031F0
:100B7800452F4101CF1BD52D4F08031DCD2D4E0804
:100B8800031DCD2D4D08031DCD2D02304C02031C35
:100B9800D52DFF30CC07FF30CD3DFF30CE3DFF30A7
:100BA800CF3D4001A901C330A4315E248031410109
:100BB8004F084001BB0041014E084001BA00410105
:100BC8004D084001B90041014C084001B8009E3170
:100BD800B82680314001A901C330A4315E24803198
:100BE8004001A9010F30A4315E2480310230410157
:100BF800B4008630B3009930890B002EB30B002E59
:100C0800B40B002E41014D084001A30041014C08DE
:100C18004001A2000130A73141278031452F410111
:100C2800CB1B2B2E4B08031D232E4A08031D232EF6
:100C38004908031D232E02304802031C2B2EFF30C7
:100C4800C807FF30C93DFF30CA3DFF30CB3D4001EA
:100C5800A901C830A4315E24803141014B0840010C
:100C6800BB0041014A084001BA004101490840015E
:100C7800B900410148084001B8009E31B8268031CA
:100C88004001A901C830A4315E2480314001A90186
:100C98000F30A4315E24803102304101B400863027
:100CA800B3009930890B562EB30B562EB40B562E23
:100CB800410149084001A300410148084001A20040
:100CC8000230A73141278031452F023041014202CD
:100CD800031C702E0130C2024001A901CC30A4319E
:100CE8005E24803141014208A3319E2380314001B6
:100CF800A901CC30A4315E2480314001A9010F3014
:100D0800A4315E24803102304101B4008630B30042
:100D18009930890B8D2EB30B8D2EB40B8D2E41017E
:100D28004208B300B40133084201D6004101340837
:100D38004201D70041014208B300B4013308400121
:100D4800A200410134084001A3000330A731412724
:100D58008031452F7211DC01DD018B130B13A0319B
:100D68008D208031023041014102031CBE2E01302A
:100D7800C102ED2EC101ED2EBC304001AC00A830FF
:100D8800AD00CF304101B30033084001AE00A231BD
:100D980097228031F92EBA304001AC00A830AD005E
:100DA800CF304101B30033084001AE00A231972291
:100DB8008031F92EBE304001AC00A830AD00CF30F4
:100DC8004101B30033084001AE00A23197228031BF
:100DD800F92E41014108003A0319C02E013A0319BE
:100DE800CF2E033A0319DE2EF92E4001A901CF3088
:100DF800A4315E2480314001A9010F30A4315E2462
:100E0800803102304101B4008630B3009930890B3B
:100E18000B2FB30B0B2FB40B0B2F41014108B30061
:100E2800B40133084001A200410134084001A30085
:100E38000430A73141278031452F420166088400DC
:100E4800053004020318452FA0310435143E8200F2
:100E5800452F4401BC01452F44013C08013A0319C0
:100E68006629033A0319972A013A0319472D073AC5
:100E78000319212F013A03194B28023A031966294D
:100E88002D2F4401BC019C31312C01304201DE0779
:100E98000030DF3D0130C8070030C93D0030CA3D91
:100EA8000030CB3D0130C4070030C53D0030C63DA1
:100EB8000030C73DCB1B752F4B08031D6C2F4A080C
:100EC800031D6C2FF53048020130493B031C752F78
:100ED8000030CB000030CA000030C9000030C80024
:100EE8007214C71B8C2F4708031D832F4608031D48
:100EF800832FF53044020130453B031C8C2F003012
:100F0800C7000030C6000030C5000030C400F1172B
:100F180003305F02E93003195E02031CA92FDE01CA
:100F2800DF010130F70077084101C707F0153C30B1
:100F38004702031CA92FC7010130F7007708C6072D
:100F48003C3046020318C601F015F21FE12FA0310C
:100F5800BA20873173084301E7007408E800E90103
:100F6800EA01A031C420873173084201C000740827
:100F7800C100C201C30101304301E3070030E43D71
:100F88000030E53D0030E63DE61B08006608031D1D
:100F9800D72F6508031DD72F6408031DD72F3330BB
:100FA8006302031C08000030E6000030E500003052
:100FB800E4000030E300F214080001304201DC07CD
:100FC8000030DD3D08004001A1014101430803193B
:100FD800FD2F7A08793E8600870101084001A000AC
:100FE8002008A1007A08793E860087018101410125
:100FF800C301400121080800410194010230950015
:10100800960199019701033098009A019B019C0170
:101018009D019E0142018D018E018F019001910178
:101028009201930184304101930008004101A60117
:10103800A701F010F21C08000030A13117218831F7
:10104800400120084201B000400121084201B100DE
:10105800B201B3010530640203186328013041016D
:10106800A20022084201E40730082C074101A2002F
:10107800420131082D3D4101A300420132082E3DB5
:101088004101A400420133082F3D4101A500250874
:101098004201AF00410124084201AE00410123088A
:1010A8004201AD00410122084201AC000030B3000A
:1010B8000030B2000030B1000030B000F828E40180
:1010C80030082C074101A200420131082D3D4101A1
:1010D800A300420132082E3D4101A4004201330819
:1010E8002F3D4101A50025084201AF004101240818
:1010F8004201AE00410123084201AD00410122082E
:101108004201AC0000304001AF000030AE000030BA
:10111800AD000530AC0042012F084001B300420188
:101128002E084001B20042012D084001B1004201E1
:101138002C084001B000A6313926883140012F081B
:101148004201AF0040012E084201AE0040012D08C7
:101158004201AD0040012C084201AC00AF1BE7285A
:101168002F08031DC0282E08031DC02821302C027B
:1011780003302D3B031CE728A8304001AC00A83001
:10118800AD00C0304101A20022084001AE00A231EA
:10119800972288314001A901C930A4315E248831E1
:1011A80042012F084001BB0042012E084001BA004D
:1011B80042012D084001B90042012C084001B80045
:1011C80090315820F01400304201B3000030B200D2
:1011D8000030B1000030B0003308AF003208AE0074
:1011E8003108AD003008AC00F21008004101AA0136
:1011F800AB018B1355307D018F00AA308F000F1083
:101208000C307E01AA001D30AB000B30A800063060
:10121800A9001030A600F0307D01900555308F00F0
:10122800AA308F000F148B170B1700304301E6000C
:101238000030E5000030E4000030E300A0319020E9
:101248008831A0318A2088314201DE01DF01003077
:101258004001A000A100A13179218831003040016E
:10126800A000A100A1319021883133304001AC00A9
:10127800A830AD0080304101A80028084001AE0028
:10128800A2319722883122304001AC00A830AD004D
:10129800C0304101A80028084001AE00A2319722C1
:1012A800883142013F084301E20042013E08430100
:1012B800E10042013D084301E00042013C084301CE
:1012C800DF0042013B084301DE0042013A084301C6
:1012D800DD00420139084301DC00420138084301BE
:1012E800DB0000304001AF000030AE000030AD0040
:1012F8006430AC0043015E084001A30043015D086F
:101308004001A20043015C084001A10043015B08C1
:101318004001A0000030A7000030A6000030A50062
:101328005030A400A3313923883140012308B30089
:101338002208B2002108B1002008B000A6313926E1
:10134800883140012F084201B70040012E084201B0
:10135800B60040012D084201B50040012C084201A9
:10136800B40037084001A300420136084001A2003A
:10137800420135084001A100420134084001A000A3
:101388000030A7000030A6000030A5000A30A400F5
:10139800A33139238831400123084201B7004001B5
:1013A80022084201B600400121084201B50040016F
:1013B80020084201B4004001A9018130A4315E2413
:1013C8008831420137084001BB004201360840011C
:1013D800BA00420135084001B90042013408400111
:1013E800B800903158208831F21741014008BE00FA
:1013F8003F08BD003E084001A30041013D084001EF
:10140800A2000130A531C32588314001A9018730E8
:10141800A4315E248831420143084001BB004201E7
:1014280042084001BA00420141084001B9004201A6
:1014380040084001B800903158208831F211F0126C
:10144800F010F62A400190188C1E2F2A0E1C0D1839
:101458002F2AF01CF62A701BF62A82304101A800B8
:10146800DD30890B352AA80B352A00324001901847
:101478008C1E432A0E1C0D18432AF01CF62A701BDA
:10148800F62AF01641013E084001A30041013D083B
:101498004001A20001309831142088314001A9018F
:1014A8008730A4315E248831420143084001BB00E3
:1014B800420142084001BA00420141084001B90016
:1014C800420140084001B800903158208831AE30C0
:1014D80042014007B400FB30413DB500FF30423DBA
:1014E800B600FF30433DB700B71F822A0030B7006F
:1014F8000030B6000430B5005230B4004001A901F4
:101508008130A4315E248831420137084001BB0094
:10151800420136084001BA00420135084001B900CD
:10152800420134084001B800903158208831400108
:101538000F1706304101A9001330A800AD30890B00
:10154800A32AA80BA32AA90BA32A0032063041011B
:10155800A9001330A800AD30890BB02AA80BB02A17
:10156800A90BB02A003206304101A9001330A800A7
:10157800AD30890BBD2AA80BBD2AA90BBD2A0032A4
:1015880040010F137012F010420141084101AB00F5
:10159800420140084101AA0000304201C300003066
:1015A800C2000030C1000030C00070170030400198
:1015B800A000A100A1317921883100304001A000AC
:1015C800A100A1319021883141013E084001A300CA
:1015D80041013D084001A2000030A531C3258831F2
:1015E80070147217F21F1B2B41013E08A1003D0821
:1015F800A000013088311A20883142014308803A1E
:101608004101A80042013708803A410128024201FD
:10161800031D182B36084202031D182B35084102FA
:10162800031D182B34084002031C262AF213F01E4F
:101638002B2B41013E084001A30041013D08400118
:10164800A200003098311420883172173D2B4101D7
:101658003E084001A30041013D084001A2000130BD
:101668009831142088317213721A72124201D4010F
:10167800D5010030721B01304001A0002930A23191
:10168800BC22883108304101A800C930890B4A2B97
:10169800A80B4A2B003270134001A901C630A431AF
:1016A8005E248831420143084001BB0042014208E0
:1016B8004001BA00420141084001B9004201400816
:1016C8004001B8009031582088314001A901CC3040
:1016D800A4315E24883142015E084001B80042010D
:1016E8005F084001B900BA01BB0190315820883128
:1016F8007012F01240010F12A0318D208831903104
:10170800002088318B130B138B1355307D018F000C
:10171800AA308F000F107E01AA01AB01A801A90110
:10172800A601F0307D01900555308F00AA308F005A
:101738000F1406304101A9001330A800AD30890B01
:10174800A32BA80BA32BA90BA32B003240010F1727
:1017580006304101A9001330A800AD30890BB22B27
:10176800A80BB22BA90BB22B003240010F139931F1
:10177800682108004101B1018731E7278B31410118
:10178800AF002F08B10030303102031CFA2F7A3035
:101798003102031CD52FFA2FF21740010F12913096
:1017A800AC00A830AD0080304101AF002F084001E7
:1017B800AE00A23197228B3102304101AF002F08D1
:1017C8004201E70041014F084201BF0041014E08B4
:1017D8004201BE0041014D084201BD0041014C08D3
:1017E8004201BC0041014B084201BB0041014A08CB
:1017F8004201BA00410149084201B90041014808C3
:101808004201B800721F721A1C2C9D304001AC00B6
:10181800A830AD0080304101AF002F084001AE0074
:10182800A23197228B317216923110228B31BB2C48
:10183800721B721AB22C721677304001AC00A830B5
:10184800AD0080304101AF002F084001AE00A23149
:1018580097228B3100304001AF000030AE000030DD
:10186800AD006430AC0041014F084001A3004101C4
:101878004E084001A20041014D084001A10041016C
:101888004C084001A0000030A7000030A60000303E
:10189800A5001130A400A33139238B31400123085E
:1018A800B3002208B2002108B1002008B000A63118
:1018B80039268B3140012F084201BF0040012E0814
:1018C8004201BE0040012D084201BD0040012C0824
:1018D8004201BC0000304001AF000030AE000030D3
:1018E800AD006430AC0041014B084001A300410148
:1018F8004A084001A200410149084001A1004101F4
:1019080048084001A0000030A7000030A6000030C1
:10191800A5001130A400A33139238B3140012308DD
:10192800B3002208B2002108B1002008B000A63197
:1019380039268B3140012F084201BB0040012E0897
:101948004201BA0040012D084201B90040012C08AB
:101958004201B800923110228B31BB2C721B721ECF
:10196800BB2C72178831FA208B3172127213063031
:101978004101B0001330AF00AD30890BC12CAF0B63
:10198800C12CB00BC12C003206304101B00013301D
:10199800AF00AD30890BCE2CAF0BCE2CB00BCE2CBC
:1019A80000328B178B170B170800F21740010F1224
:1019B8009130AC00A830AD0080304101AF002F0855
:1019C8004001AE00A23197228B3102304101AF00B5
:1019D8002F084201E70041014F084201BF004101C1
:1019E8004E084201BE0041014D084201BD004101BF
:1019F8004C084201BC0041014B084201BB004101B7
:101A08004A084201BA00410149084201B9004101AE
:101A180048084201B800721F721A252D9D304001F6
:101A2800AC00A830AD0080304101AF002F08400164
:101A3800AE00A23197228B317216923110228B316F
:101A4800C42D721B721ABB2D721677304001AC0080
:101A5800A830AD0080304101AF002F084001AE0032
:101A6800A23197228B3100304001AF000030AE0028
:101A78000030AD006430AC0041014F084001A300C4
:101A880041014E084001A20041014D084001A1005A
:101A980041014C084001A0000030A7000030A6001A
:101AA8000030A5001130A400A33139238B31400147
:101AB8002308B3002208B2002108B1002008B000B2
:101AC800A63139268B3140012F084201BF00400161
:101AD8002E084201BE0040012D084201BD00400110
:101AE8002C084201BC0000304001AF000030AE00BD
:101AF8000030AD006430AC0041014B084001A30048
:101B080041014A084001A200410149084001A100E1
:101B1800410148084001A0000030A7000030A6009D
:101B28000030A5001130A400A33139238B314001C6
:101B38002308B3002208B2002108B1002008B00031
:101B4800A63139268B3140012F084201BB004001E4
:101B58002E084201BA0040012D084201B900400197
:101B68002C084201B800923110228B31C42D721B0F
:101B7800721EC42D72178831FA208B3172127213BB
:101B880006304101B0001330AF00AD30890BCA2DCB
:101B9800AF0BCA2DB00BCA2D003206304101B00080
:101BA8001330AF00AD30890BD72DAF0BD72DB00B4D
:101BB800D72D00328B178B170B17080061304101A6
:101BC800AF002F08B1000130BF070030C03D400111
:101BD800A901C030A4315E248B3141014008400185
:101BE800AD0041013F084001AC00A631BB268B3156
:101BF800410140084001A30041013F084001A20003
:101C08000030A73141274101B10108006230AF001F
:101C18002F08B1000130BF020030C03B4001A901CC
:101C2800C030A4315E248B31410140084001AD0031
:101C380041013F084001AC00A631BB268B31410170
:101C480040084001A30041013F084001A2000030C4
:101C5800A73141274101B10108006330AF002F08C7
:101C6800B10002304102031C3B2EC1016D2E013030
:101C7800AF002F08C1076D2EBC304001AC00A83062
:101C8800AD00CF304101AF002F084001AE00A231B6
:101C980097228B31792EBA304001AC00A830AD00C4
:101CA800CF304101AF002F084001AE00A23197228A
:101CB8008B31792EBE304001AC00A830AD00CF305A
:101CC8004101AF002F084001AE00A23197228B31AD
:101CD800792E41014108003A0319402E013A0319AF
:101CE8004F2E033A03195E2E792E41014108AF00A9
:101CF800B0012F084001A200410130084001A300B3
:101D08000430A7314127080064304101AF002F0893
:101D1800B100633042020318962E0130AF002F083D
:101D2800C2079A2E6330AF002F08C2004208AF00E6
:101D3800B0012F084001A000410130084001A10076
:101D48006030A200EA30A300A131DD218B314001CF
:101D580021084201D700400120084201D600400175
:101D6800A901CC30A4315E248B3141014208A33152
:101D78009E238B3141014208AF00B0012F0840017A
:101D8800A200410130084001A3000330A7314127D8
:101D9800080065304101AF002F08B100023042024F
:101DA800031CD82E0130C2024208AF00B0012F0830
:101DB8004001A000410130084001A1006030A200AC
:101DC800EA30A300A131DD218B3140012108420115
:101DD800D700400120084201D6004001A901CC30BB
:101DE800A4315E248B3141014208A3319E238B31FB
:101DF80041014208AF00B0012F084001A200410193
:101E080030084001A3000330A7314127080066309D
:101E18004101AF002F08B1000130CC070030CD3DA3
:101E28000030CE3D0030CF3D4001A901C430A4317F
:101E38005E248B3141014D084001AD0041014C0841
:101E48004001AC00A631BB268B3141014D08400151
:101E5800A30041014C084001A2000130A7314127ED
:101E6800080067304101AF002F08B100CF1B512F88
:101E78004F08031D492F4E08031D492F4D08031D08
:101E8800492F02304C02031C512FFF30CC07FF3082
:101E9800CD3DFF30CE3DFF30CF3D4001A901C430DC
:101EA800A4315E248B3141014D084001AD00410150
:101EB8004C084001AC00A631BB268B3141014D08CE
:101EC8004001A30041014C084001A2000130A731A4
:101ED8004127080068304101AF002F08B1000130E8
:101EE800C8070030C93D0030CA3D0030CB3D6830DE
:101EF800AF002F08B1004001A901C830A4315E2409
:101F08008B31410149084001AD00410148084001B9
:101F1800AC00A631BB268B31410149084001A30022
:101F2800410148084001A2000230A73141270800BA
:101F380069304101AF002F08B100CB1BB82F4B0807
:101F4800031DB02F4A08031DB02F4908031DB02FE9
:101F580002304802031CB82FFF30C807FF30C93DC4
:101F6800FF30CA3DFF30CB3D4001A901C830A43144
:101F78005E248B31410149084001AD004101480808
:101F88004001AC00A631BB268B3141014908400114
:101F9800A300410148084001A2000230A7314127AF
:101FA800080041013108613A0319E22D033A031987
:101FB8000A2E013A0319312E073A0319882E013ADD
:101FC8000319CD2E033A03190B2F013A0319352FA4
:101FD8000F3A03196E2F013A03199C2F183A031967
:101FE800D02B063A0319D92CFF2F08003030AF0048
:101FF8002F08B10008000800A03193200800400114
:102008009A019901960197019801073095001F30B0
:10201800910003309200BF309300940148307E0154
:10202800CE00FC30C300FF30D900E401FF30B80017
:10203800DA01E501C401B901CF01E601BA01C50120
:10204800D001DB0100308B1B01304001A0008B1355
:1020580055307D018F00AA308F000F100C307E01A3
:10206800AA007D011408E039133894001608E039F5
:10207800153896001D307E01AB000B30A8000630E5
:10208800A9001030A6007D011008F039083890002A
:1020980055308F00AA308F000F144001201C56289D
:1020A8008B1708008B130800B130860001308700B9
:1020B80040308400003085000A304001BC00160022
:1020C8001A00BC0B63280030DF000030DE0000304F
:1020D800DD003030DC000030E3000030E20000308A
:1020E800E1003030E0000030E7000030E60000306A
:1020F800E5003030E4000030EB000030EA0000304A
:10210800E9003030E8000030EF000030EE00003029
:10211800ED003030EC000030B1000030B00000308D
:10212800AF000A30AE003B08B5003A08B4003908E1
:10213800B3003808B200A331D523903140012F08ED
:10214800DB002E08DA000030B1000030B0000030AB
:10215800AF000A30AE000030A3000030A20000300B
:10216800A1000A30A0003B08A7003A08A6003908D9
:10217800A5003808A400A431FA24903140012308AE
:10218800B5002208B4002108B3002008B200A3312A
:10219800D523903140013108CD003008CC002F08FC
:1021A800CB002E08CA000030B1000030B00000306B
:1021B800AF000A30AE000030A3000030A2000030AB
:1021C800A1006430A0003B08A7003A08A60039081F
:1021D800A5003808A400A431FA249031400123084E
:1021E800B5002208B4002108B3002008B200A331CA
:1021F800D523903140013108D1003008D0002F0894
:10220800CF002E08CE000030B1000030B000003002
:10221800AF000A30AE000030A3000030A200033047
:10222800A100E830A0003B08A7003A08A60039083A
:10223800A5003808A400A431FA24903140012308ED
:10224800B5002208B4002108B3002008B200A33169
:10225800D523903140013108D5003008D4002F082B
:10226800D3002E08D2000030B1000030B00000309A
:10227800AF000A30AE000030A3000030A2002730C3
:10228800A1001030A0003B08A7003A08A6003908B2
:10229800A5003808A400A431FA249031400123088D
:1022A800B5002208B4002108B3002008B200A33109
:1022B800D523903140013108D9003008D8002F08C3
:1022C800D7002E08D6003B08031D73293A08031DC2
:1022D8007329103038022730393B031C84295608EB
:1022E800403E860087010108BC00BD01BE01BF0158
:1022F8003F08DF003E08DE003D08DD003C08DC004A
:102308003B08031D90293A08031D9029E83038023C
:102318000330393B031CA1295208403E860087013F
:102328000108BC00BD01BE01BF013F08E3003E0833
:10233800E2003D08E1003C08E0003B08031DAE292F
:102348003A08031DAE293908031DAE296430380246
:10235800031CBF294E08403E860087010108BC00C7
:10236800BD01BE01BF013F08E7003E08E6003D0889
:10237800E5003C08E4003B08031DCC293A08031D8E
:10238800CC293908031DCC290A303802031CDD2961
:102398004A08403E860087010108BC00BD01BE0115
:1023A800BF013F08EB003E08EA003D08E9003C0891
:1023B800E8005A08403E860087010108BC00BD01BC
:1023C800BE01BF013F08EF003E08EE003D08ED00EA
:1023D8003C08EC00A901A90A5C08A4315E249031EC
:1023E8004001A901A90A6008A4315E249031400186
:1023F800A901A90A6408A4315E2490314001A90109
:10240800A90A6808A4315E2490314001A901A90AEB
:102418006C08A4315E2408008B1355307D018F00B1
:10242800AA308F000F100C307E01AA001D30AB00BF
:102438000B30A8000630A9001030A600F0307D014E
:10244800900555308F00AA308F000F148B170B178B
:1024580000304301E6000030E5000030E4000030C1
:10246800E3007113F11233304001AC00A830AD0025
:1024780080304101A80028084001AE00A23197220F
:10248800923111304001AC00A830AD00C03041019C
:10249800A80028084001AE00A231972292314201DB
:1024A800DE01DF01A03190209231A0318A209231E3
:1024B80042013F084301E20042013E084301E100B6
:1024C80042013D084301E00042013C084301DF00AE
:1024D80042013B084301DE0042013A084301DD00A6
:1024E800420139084301DC00420138084301DB009E
:1024F80000304001AF000030AE000030AD00643065
:10250800AC00430162084001A30043016108400197
:10251800A200430160084001A10043015F08400197
:10252800A0000030A7000030A6000030A500503001
:10253800A400A3313923923140012308B3002208B3
:10254800B2002108B1002008B000A6313926923126
:1025580040012F084201B70040012E084201B60091
:1025680040012D084201B50040012C084201B40089
:1025780037084001A300420136084001A200420189
:1025880035084001A100420134084001A000003094
:10259800A7000030A6000030A5000A30A400A3312F
:1025A80039239231400123084201B7004001220833
:1025B8004201B600400121084201B500400120084F
:1025C8004201B4004001A9018130A4315E24923156
:1025D800420137084001BB00420136084001BA00F9
:1025E800420135084001B900420134084001B800F1
:1025F800903158209231F21700304001A000A1001C
:10260800A1317921923100304001A000A100A1310F
:102618009021923141014008BE003F08BD003E08AC
:102628004001A30041013D084001A2000030A5314E
:10263800C32592314001A9018730A4315E2492312B
:1026480043016A084001BB00430169084001BA0020
:10265800430168084001B900430167084001B80018
:102668009031582092317012F21F5D2B41013E08C3
:10267800A1003D08A000003088311A2092314201A3
:102688004308803A4101A80042013708803A4101D5
:1026980028024201031D5A2B36084202031D5A2BF9
:1026A80035084102031D5A2B34084002031C382BFD
:1026B800F21341013E084001A30041013D084001D9
:1026C800A20000309831142092314001A901C6308F
:1026D800A4315E249231420143084001BB0042010B
:1026E80042084001BA00420141084001B9004201D4
:1026F80040084001B8009031582092314001A901AA
:10270800CC30A4315E24923142015E084001B80009
:1027180042015F084001B900BA01BB01903158205D
:102728009231F2137012A0318D2092319031002035
:10273800923100304001A000A100A231352292312F
:1027480000304001A000A100A2315422923172173A
:102758000030721B01304001A0002930A231BC2298
:10276800923108304101A800C930890BB92BA80B58
:10277800B92B0032420138084101A8002808AE00F0
:102788002E08A80028084001A0003430A231BC223D
:10279800923108304101A800C930890BD12BA80B10
:1027A800D12B0032420138084101A8004201390802
:1027B8004101A90042013A084101AA0042013B082F
:1027C8004101AB000830AC00AB37AA0CA90CA80C2F
:1027D800AC0BE82B2808AD002D08AE002E08A80089
:1027E80028084001A0003530A231BC2292310830BF
:1027F8004101A800C930890BFF2BA80BFF2B003221
:102808008B130B138B1355307D018F00AA308F006B
:102818000F107E01AA01AB01A801A901A601F030A1
:102828007D01900555308F00AA308F000F140630B7
:102838004101A9001330A800AD30890B212CA80B49
:10284800212CA90B212C003240010F170630410121
:10285800A9001330A800AD30890B302CA80B302C00
:10286800A90B302C003240010F1399316821080060
:102878004001C4010530BA003A08C4004408A13137
:10288800292194314001BA003A08C00008304001BB
:10289800BA00C930890B4E2CBA0B4E2C00321130BD
:1028A800400140060319312E1130BA003A08A00041
:1028B8000530A231BC22943108304001BA00C93039
:1028C800890B642CBA0B642C003230304101BF00F4
:1028D8000030C0003F084001BA003A08C200410178
:1028E80040084001BA003A08C3004101BF01C001D5
:1028F80001304001BA003A08C4074208BA003A0851
:10290800A0004408A231BC22943108304001BA002A
:10291800C930890B8D2CBA0B8D2C00320130400147
:10292800BA003A08C4074308BA003A08A0004408A5
:10293800A231BC22943108304001BA00C930890B59
:10294800A32CBA0BA32C003200304101CF00003079
:10295800CE000430CD00F630CC004C084001BA005F
:102968003A08C20041014C084001BA0041014D0833
:102978004001BB0041014E084001BC0041014F0825
:102988004001BD000830BE00BD37BC0CBB0CBA0C02
:10299800BE0BC82C3A08BF003F08C30000304101F5
:1029A800CF000030CE000030CD000030CC00013028
:1029B8004001BA003A08C4074208BA003A08A00021
:1029C8004408A231BC22943108304001BA00C93011
:1029D800890BEC2CBA0BEC2C003201304001BA0008
:1029E8003A08C4074308BA003A08A0004408A231CC
:1029F800BC22943108304001BA00C930890B022D3D
:102A0800BA0B022D003200304101CB000030CA0061
:102A18000530C9000A30C80048084001BA003A0821
:102A2800C200410148084001BA004101490840017B
:102A3800BB0041014A084001BC0041014B0840016C
:102A4800BD000830BE00BD37BC0CBB0CBA0CBE0BB9
:102A5800272D3A08BF003F08C30000304101CB00D2
:102A68000030CA000030C9000030C8000130400101
:102A7800BA003A08C4074208BA003A08A000440855
:102A8800A231BC22943108304001BA00C930890B08
:102A98004B2DBA0B4B2D003201304001BA003A08D9
:102AA800C4074308BA003A08A0004408A231BC226F
:102AB800943108304001BA00C930890B612DBA0B36
:102AC800612D00320A304001BA003A084101C200C3
:102AD80042084001BA00BB013A08A0003B08A10027
:102AE8006030A200EA30A300A131DD219431400119
:102AF80021084201D700400120084201D6004101C7
:102B080042084001BA003A08C2000130BA003A0847
:102B1800C4074208BA003A08A0004408A231BC22FF
:102B2800943108304001BA00C930890B992DBA0B8D
:102B3800992D003202304001BA003A084101C10023
:102B480041084001BA003A08C2000130BA003A0808
:102B5800C4074208BA003A08A0004408A231BC22BF
:102B6800943108304001BA00C930890BB92DBA0B2D
:102B7800B92D00324201E50165084001BA003A0862
:102B8800A0002930A231BC22943108304001BA009B
:102B9800C930890BCD2DBA0BCD2D00320030410143
:102BA800CB000030CA000530C9000A30C800480808
:102BB8004001BA003A08C200410148084001BA0081
:102BC800410149084001BB0041014A084001BC00DD
:102BD80041014B084001BD000830BE00BD37BC0CA8
:102BE800BB0CBA0CBE0BF22D3A08BF003F08C3005D
:102BF80000304101CB000030CA000030C90000306D
:102C0800C80034304001BA003A08C4004208BA008B
:102C18003A08A0004408A231BC229431083040018F
:102C2800BA00C930890B162EBA0B162E00320130A5
:102C38004001BA003A08C4074308BA003A08A0009D
:102C48004408A231BC22943108304001BA00C9308E
:102C5800890B2C2EBA0B2C2E003205304001BA00FD
:102C68003A08C4004408A131292194314001BA002E
:102C78003A08C00008304001BA00C930890B422E1A
:102C8800BA0B422E003201304001BA003A08C4079C
:102C98004408A131292194314001BA003A08C00002
:102CA80008304001BA00C930890B582EBA0B582E8B
:102CB800003201304001BA003A08C4074408A13183
:102CC800292194314001BA003A08C1000830400176
:102CD800BA00C930890B6E2EBA0B6E2E0032400135
:102CE8004008BA00BB014108BC00BD013C08BD005A
:102CF800BC013A083C044101BF0040013B083D04C7
:102D08004101C0004001A901C030A4315E249431C2
:102D1800410140084001AD0041013F084001AC00BD
:102D2800A631BB26943101304001BA003A08C407E5
:102D38004408A131292194314001BA003A08C00061
:102D480008304001BA00C930890BA82EBA0BA82E4A
:102D5800003201304001BA003A08C4074408A131E2
:102D6800292194314001BA003A08C10008304001D5
:102D7800BA00C930890BBE2EBA0BBE2E00324001F4
:102D88004008BA00BB014108BC00BD013C08BD00B9
:102D9800BC013A083C044101CC0040013B083D0419
:102DA8004101CD00CE01CF014001A901C430A431B9
:102DB8005E24943141014D084001AD0041014C08A9
:102DC8004001AC00A631BB26943101304001BA0065
:102DD8003A08C4074408A131292194314001BA00B6
:102DE8003A08C00008304001BA00C930890BFA2EF1
:102DF800BA0BFA2E003201304001BA003A08C40773
:102E08004408A131292194314001BA003A08C1008F
:102E180008304001BA00C930890B102FBA0B102FA7
:102E2800003240014008BA00BB014108BC00BD01A6
:102E38003C08BD00BC013A083C044101C8004001FF
:102E48003B083D044101C900CA01CB014001A90169
:102E5800C830A4315E249431410149084001AD00D5
:102E6800410148084001AC00A631BB26943101302D
:102E78004001BA003A08C4074408A1312921943115
:102E88004001BA003A084101C20008304001BA00C6
:102E9800C930890B4D2FBA0B4D2F00324001A901C3
:102EA800CC30A4315E24943141014208A3319E23E1
:102EB800943101304001BA003A08C4074408A131EE
:102EC800292194314001BA003A084101C100083073
:102ED8004001BA00C930890B6F2FBA0B6F2F00322F
:102EE8009C2FBC304001AC00A830AD00CF30BA00F8
:102EF8003A08AE00A23197229431A82FBA30400187
:102F0800AC00A830AD00CF30BA003A08AE00A2310C
:102F180097229431A82FBE304001AC00A830AD00F4
:102F2800CF30BA003A08AE00A23197229431A82FC8
:102F380041014108003A0319752F013A0319822FFC
:102F4800033A03198F2F8F2F2930A131292194316A
:102F58004001BA003A084201E50008304001BA00D1
:102F6800C930890BB52FBA0BB52F0032420165085D
:102F78000319080034304001BA003A08C400440874
:102F8800A131292194314001BA003A08C000083023
:102F98004001BA00C930890BCF2FBA0BCF2F0032AE
:102FA80001304001BA003A08C4074408A131292178
:102FB80094314001BA003A08C10008304001BA0013
:102FC800C930890BE52FBA0BE52F003240014008C4
:102FD800BA00BB014108BC00BD013C08BD00BC01F2
:102FE8003A083C044101C80040013B083D04410146
:102FF800C900CA01CB010800023044019A009B01B4
:103008009C019D019901980119084201EA004401B7
:1030180018084201E9004E011012A031872008006B
:103028004001A5002508031952282308A7002208F3
:10303800A6002708803AA40080302402031D262811
:1030480001302602031C962800304001A000A10090
:10305800A2313522983140012708803AA4008030F7
:103068002402031D392802302602031C432840018C
:103078002708A1002608A000A23154229831203048
:103088004001A4002930890B4728A40B47280032A7
:10309800FF304001A607FF30A73D1D284001230847
:1030A800A9002208A8002908803AA4008030240238
:1030B800031D602801302802031C962800304001B7
:1030C800A000A100A2315422983140012908803A79
:1030D800A40080302402031D732802302802031C38
:1030E8007D2840012908A1002808A000A231352226
:1030F800983120304001A4002930890B8128A40B85
:1031080081280032FF304001A807FF30A93D290877
:10311800803AA40080302402031D9428013028023C
:103128000318622800304001A000A100A231352216
:10313800983100304001A000A100A2315422400182
:103148008F1308000430A13117219831400120085D
:103158004201A400400121084201A500A601A701DF
:10316800053062020318E12801304101A00020085F
:103178004201E207240820074101A0004201250876
:10318800213D4101A10042012608223D4101A20042
:1031980042012708233D4101A30023084201A3005F
:1031A800410122084201A200410121084201A10077
:1031B800410120084201A0006629E20124082007F5
:1031C8004101A00042012508213D4101A100420121
:1031D8002608223D4101A20042012708233D410162
:1031E800A30023084201A300410122084201A200D2
:1031F800410121084201A100410120084201A0002B
:1032080000304001AF000030AE000030AD000530A6
:10321800AC00420123084001B300420122084001EA
:10322800B200420121084001B100420120084001DA
:10323800B000A6313926983140012F084201A30079
:1032480040012E084201A20040012D084201A100C0
:1032580040012C084201A000B6304001AC00A83063
:10326800AD0088304101A00020084001AE00A23125
:10327800972298314001A9018A30A4315E249831FF
:10328800420123084001BB00420122084001BA0064
:10329800420121084001B900420120084001B8005C
:1032A80090315820420123084301D60042012208E8
:1032B8004301D500420121084301D40042012008FE
:1032C8004301D300F11308004001A9010130A431E2
:1032D8005E24993100304001AC00A830AD00803048
:1032E8004101A00020084001AE00A2319722993187
:1032F8004001A901C030A4315E2499314101400840
:103308004001AD0041013F084001AC00A631BB2699
:1033180099314001A901C430A4315E249931410199
:103328004D084001AD0041014C084001AC00A631F8
:10333800BB2699314001A901C830A4315E249931D6
:10334800410149084001AD00410148084001AC0075
:10335800A631BB2699314001A901CC30A4315E24A5
:10336800993141014208A3319E239931023041012C
:103378004106031DC429BE304001AC00A830D52940
:1033880041014108031DCD29BC304001AC00A830E3
:10339800D52941014103031DDF29BA304001AC00A2
:1033A800A830AD00CF304101A00020084001AE0098
:1033B800A23197229931B2304001AC00A830AD005B
:1033C80080304101A00020084001AE00A2319722C0
:1033D80099314001A9018230A4315E24993141011B
:1033E8003C084001BB0041013B084001BA004101D3
:1033F8003A084001B900410139084001B80090314C
:1034080058209931B6304001AC00A830AD0080306A
:103418004101A00020084001AE00A2319722993155
:103428004001A9018A30A4315E2499314201230860
:103438004001BB00420122084001BA0042012108B4
:103448004001B900420120084001B80090315820DD
:1034580008004401BF01C001C53086000130870063
:10346800313084000230850006304101B300160077
:103478001A00B30B3B2AA0308600013087002030A9
:103488008400023085001130B30016001A00B30B17
:10349800492A4401BC01A23173229A317E01CE012E
:1034A800C301D901E4011330B8003F304001910055
:1034B80001309200FF3093009401073095008D0190
:1034C8008E018F018E01A13163219A31343041017F
:1034D800B300F130890B6E2AB30B6E2A003290319B
:1034E80000209A3100304001A000A100A23135220D
:1034F8009A3100304001A000A100A23154229A3133
:10350800A23117229A314001A9010130A4315E2469
:103518009A3144304001AC00A830AD008030410100
:10352800B30033084001AE00A23197229A316630C9
:103538004001AC00A830AD00C0304101B3003308F1
:103548004001AE00A23197229A318B170B174E011A
:103558001912991640010E100E118E100E128C12AF
:1035680010140D108F13901410110F174401BA0185
:10357800BB013B08803A4101B30080303302031D90
:10358800C82A0A3044013A020318E52A8230410168
:10359800B300DD30890BCE2AB30BCE2A00320130BE
:1035A8004401BA070030BB3D3B08803A4101B300F3
:1035B80080303302031DE32A0A3044013A02031C17
:1035C800CA2A40010F1394313C249A319931682159
:1035D8009A314201E601CE01CF01CC01CD01DE01D5
:1035E800DF0130304101B30033084401B7004E0118
:1035F800991606304401BF000030C000BD013F08E5
:10360800FF3E4101B300FF304401403D4101B40099
:103618003408803A803C031D142B330844013D02D2
:103628009B310318312B44013D08313E860002309E
:1036380087000108A03196209A3103304101B30078
:103648009730890B252BB30B252B00320130410114
:10365800B30033084401BD07032B2030A031962066
:103668009B3103304101B3009730890B392BB30BE1
:10367800392B003211304401BF000030C000BE01B8
:103688003F08FF3E4101B300FF304401403D410186
:10369800B4003408803A803C031D552B330844019C
:1036A8003E020318712B44013E08203E860002307A
:1036B80087000108A03196209B3103304101B300F7
:1036C8009730890B652BB30B652B00320130410114
:1036D800B30033084401BE07442B2030A0319620A4
:1036E8009B3103304101B3009730890B792BB30B21
:1036F800792B003242011D164E0199168B170B17B4
:103708008B1355307D018F00AA308F000F107E017A
:10371800AA01AB01A801A901A601F0307D0190051D
:1037280055308F00AA308F000F148B17F213440105
:10373800BC0141014208B300B40133084201D6007C
:10374800410134084201D700F211F012721300301F
:103758004301DA000030D9000030D8000030D7002B
:1037680041014F084201BF0041014E084201BE001D
:1037780041014D084201BD0041014C084201BC0015
:1037880041014B084201BB0041014A084201BA000D
:10379800410149084201B900410148084201B80005
:1037A800650803192E2C41014108B3003308420172
:1037B800E7008831FA209B3100304101CB0000300E
:1037C800CA000530C9000A30C8004808B3003308E9
:1037D8004401B80041014808B3004908B4004A0848
:1037E800B5004B08B6000830B700B637B50CB40CB6
:1037F800B30CB70BF92B3308B80038084401B900EB
:1038080038084101B30033084001A0003430A23128
:10381800BC229B3108304101B300C930890B122CFE
:10382800B30B122C0032440139084101B3003308AC
:103838004001A0003530A231BC229B310830410143
:10384800B300C930890B262CB30B262C00329931D2
:1038580068219B31A0318A209B31721C362C9D3106
:1038680078259B31F11F3B2C9831A6209B31A5313F
:103878004D259B314101B30033084401BC008B3115
:10388800BE238731302F752D7010923110229C3154
:103898008B170B174201DE01DF014101C701C60189
:1038A800F011A0318A209C314001A9010C30A431CB
:1038B8005E249C3100304001AC00A830AD0080305F
:1038C8004101AF002F084001AE00A23197229C3180
:1038D80055304001AC00A830AD0080304101AF0048
:1038E8002F084001AE00A23197229C314001A90166
:1038F8008330A4315E249C31420157084001AD0059
:10390800420156084001AC00A631BB269C3140015B
:10391800A9018A30A4315E249C3141014608A331B3
:103928009E239C314001A9018D30A4315E249C3135
:1039380041014708A3319E239C3141014708AF004C
:10394800B00142015608FF3E4101B100FF3042017B
:10395800573D4101B20030083202031DB52C2F0833
:103968003102031CBA2CF01DA12C8B2CC70140017D
:103978000D1CCE2C02304101B0000430AF00BA302B
:10398800890BC42CAF0BC42CB00BC42C0000400115
:103998000D18CB2C8831FA209C3182304101AF00C0
:1039A800DD30890BD52CAF0BD52C00327018721F67
:1039B800752D8B170B174201DE01DF014101C7018D
:1039C800C601F011A0318A209C314001A9010C30B8
:1039D800A4315E249C3100304001AC00A830AD0019
:1039E80080304101AF002F084001AE00A23197227C
:1039F8009C3155304001AC00A830AD008030410109
:103A0800AF002F084001AE00A23197229C3140013F
:103A1800A9018330A4315E249C314201570840013A
:103A2800AD00420156084001AC00A631BB269C31CE
:103A38004001A9018A30A4315E249C314101460825
:103A4800A3319E239C314001A9018D30A4315E240D
:103A58009C3141014708A3319E239C31410147080D
:103A6800AF00B00142015608FF3E4101B100FF30EE
:103A78004201573D4101B20030083202031D462D74
:103A88002F083102031C4B2DF01D322D1C2DC701B0
:103A980040010D1C5F2D02304101B0000430AF0021
:103AA800BA30890B552DAF0B552DB00B552D000095
:103AB80040010D185C2D8831FA209C31823041017B
:103AC800AF00DD30890B662DAF0B662D0032DA2C86
:103AD80041014108003A0319482C013A0319752D90
:103AE800752DF21F08006C2D0130A13117219D3171
:103AF800400120084201A800400121084201A90014
:103B0800AA01AB01053063020318AB2D0130410156
:103B1800A00020084201E307280841013907A00056
:103B28004201290841013A3DA10042012A08410108
:103B38003B3DA20042012B0841013C3DA300230864
:103B4800BC002208BB002108BA002008B52E42019B
:103B5800E301280841013907A00042012908410171
:103B68003A3DA10042012A0841013B3DA200420121
:103B78002B0841013C3DA3002308BC002208BB00E0
:103B88002108BA002008B90000304001AF00003019
:103B9800AE000030AD000530AC0041013C084001EA
:103BA800B30041013B084001B20041013A0840011D
:103BB800B100410139084001B000A63139269D31D4
:103BC80040012F084101BC0040012E084101BB0003
:103BD80040012D084101BA0040012C084101B900FB
:103BE800BC1B032E3C08031D3D2E3B08031D3D2E28
:103BF8003A08031D3D2EC830390203183D2E4301F3
:103C0800D61B3D2E5608031D122E5508031D122ED5
:103C1800E93053020330543B031C3D2EB2304001BF
:103C2800AC00A830AD0080304101A0002008400160
:103C3800AE00A23197229D314001A9018230A43102
:103C48005E249D3141013C084001BB0041013B0815
:103C58004001BA0041013A084001B9004101390860
:103C68004001B800903158209D31400110118F1645
:103C78009E2E4101BC1B782E3C08031D4D2E3B088F
:103C8800031D4D2E3A08031D4D2EFB303902031C2F
:103C9800782EB2304001AC00A830AD008030410130
:103CA800A00020084001AE00A23197229D314001BA
:103CB800A9018230A4315E249D3141013C084001B4
:103CC800BB0041013B084001BA0041013A084001EC
:103CD800B900410139084001B800903158209D31A0
:103CE800400110158F129E2EB2304001AC00A83052
:103CF800AD0080304101A00020084001AE00A23193
:103D080097229D314001A9018230A4315E249D3162
:103D180041013C084001BB0041013B084001BA0099
:103D280041013A084001B900410139084001B80091
:103D38009031582000304201AB000030AA0000301A
:103D4800A9000030A8002B084101BC0042012A0844
:103D58004101BB00420129084101BA00420128087B
:103D68004101B90072100800BB308600013087009D
:103D780040308400003085000A304001BC00160045
:103D88001A00BC0BC32E0030DB000030DA00003014
:103D9800D9003030D8000030DF000030DE000030BD
:103DA800DD003030DC000030E3000030E20000309D
:103DB800E1003030E0000030E7000030E60000307D
:103DC800E5003030E4000030B1000030B0000030D1
:103DD800AF000A30AE003B08B5003A08B400390815
:103DE800B3003808B200A331D5239E3140012F0813
:103DF800D7002E08D6000030B1000030B0000030E7
:103E0800AF000A30AE000030A3000030A20000303E
:103E1800A1000A30A0003B08A7003A08A60039080C
:103E2800A5003808A400A431FA249E3140012308D3
:103E3800B5002208B4002108B3002008B200A3315D
:103E4800D5239E3140013108CD003008CC002F0821
:103E5800CB002E08CA000030B1000030B00000309E
:103E6800AF000A30AE000030A3000030A2000030DE
:103E7800A1006430A0003B08A7003A08A600390852
:103E8800A5003808A400A431FA249E314001230873
:103E9800B5002208B4002108B3002008B200A331FD
:103EA800D5239E3140013108D1003008D0002F08B9
:103EB800CF002E08CE000030A3000030A20003304F
:103EC800A100E830A0003B08A7003A08A60039087E
:103ED800A5003808A400A431FA249E314001230823
:103EE800D5002208D4002108D3002008D2003B08BE
:103EF800031D872F3A08031D872FE8303802033047
:103F0800393B031C982F5208403E86008701010860
:103F1800BC00BD01BE01BF013F08DB003E08DA005E
:103F28003D08D9003C08D8003B08031DA52F3A08D6
:103F3800031DA52F3908031DA52F64303802031C63
:103F4800B62F4E08403E860087010108BC00BD011F
:103F5800BE01BF013F08DF003E08DE003D08DD006E
:103F68003C08DC003B08031DC32F3A08031DC32F80
:103F78003908031DC32F0A303802031CD42F4A08FE
:103F8800403E860087010108BC00BD01BE01BF019B
:103F98003F08E3003E08E2003D08E1003C08E0007D
:103FA8005608403E860087010108BC00BD01BE01DD
:103FB800BF013F08E7003E08E6003D08E5003C0871
:103FC800E400A901A90A5808A4315E249E314001E1
:103FD800A901A90A5C08A4315E249E314001A90107
:103FE800A90A6008A4315E249E314001A901A90AEA
:103FF8006408A4315E2408008231AC2A8231D42AB4
:104008008231F92A83311E2B8331432B8331772B5D
:104018008331E42B8431392C84318E2C8431DA2C91
:104028008531532D8531BD2D8631132E8631692E6C
:104038008631AE2EA731442FA731702FA7319D2F7F
:08404800A731CA2FA731E12FB7
:1041020045018E17080044011414080044011A14D2
:10411200080040019E17080040019E130800A031CC
:104122008120080045018E1308004001A0002008EC
:1041320042019A000800640080010131890B9D2828
:104142000034FE0012001E00FE0BA3280034623071
:1041520051018D008F0191010630930092010800F8
:10416200400121084301EC00400120084301EB001B
:10417200080044011308F6001208F5007608F4005E
:104182007508F300080044011908F6001808F50044
:104192007608F4007508F30008009F304601960087
:1041A2009501940144011E08CF3910389E00080081
:1041B2009F3046019A009901980144011E083F3937
:1041C20040389E000800303045018E0001309000DA
:1041D2008F01910113308D008C014E019010A0319E
:1041E2008120080007304C01910009308E0009300F
:1041F2008F00920193010430940001308C0003304F
:104202008D0083309000080003304C019B00093080
:104212009800093099009C019D0104309E000130F4
:1042220096000430970083309A0008004001A300F2
:10423200230841019E0093171313131413181F2907
:104242000D084001A10041010C084001A000080036
:104252004001A0002D294001640050019E182C2924
:104262001E174001200850019A0070309B001E1456
:104272001C080800440194019501960197019301DD
:10428200920113084201EC00440112084201EB00C2
:104292004E011011A031842008004E018C124201FF
:1042A2006E0840019D0042016D0840019C004301DF
:1042B2006B086C04031908006C088A006B080A007A
:1042C200A13108004101C1010030CF000030CE0011
:1042D2000030CD000030CC000030CB000030CA00EE
:1042E2000030C9000030C800C201BF01C00108008F
:1042F2004401141D87291410400121084401930030
:1043020040012008440192001414080040012108D1
:104312004401930040012008440192000800440136
:104322001A1D9E291A1040012108440199004001DA
:104332002008440198001A14080040012108440191
:104342009900400120084401980008004E0199128A
:1043520042011908F3007A08793E86008701730842
:1043620081000130F3007308FA070130F30073088B
:104372004101C3077A08031DFA014E018F129916F3
:104382000800103040019E0040309F00F8309D0030
:1043920030309C001D084201EE0040011C08420121
:1043A200ED004E018C12961649304001A0000730F4
:1043B200A100A031B12008004001A401A501201CE8
:1043C200E6292208A4072308A53D0130A235A30D42
:1043D200890BE7290130A136A00C890BEC292008B2
:1043E2002104031DE0292508A1002408A0000800DB
:1043F2004E0199121912083042019F0080309D002F
:1044020024309E00CF309B009C014101C501420136
:10441200E80108304001A00020084201EF00FA0143
:104422004101C401C3014E01991608004001A901CE
:104432000230A4315E24A2314001A9012830A43106
:104442005E24A2314001A9010130A4315E24A231CF
:104452004001A9010C30A4315E24A2314001A9011E
:104462008030A4315E240800FF304001A0050330F3
:10447200A1054601161E4B2A06304001A035A10DAA
:10448200890B3F2A21084601950040012008460178
:1044920094000800400121084601950040012008CF
:1044A200460194000800FF304001A0050330A10539
:1044B20046011A1E6A2A06304001A035A10D890B59
:1044C2005E2A210846019900400120084601980011
:1044D20008004001210846019900400120084601D8
:1044E2009800080090310320A231A031A820A23107
:1044F20088310020A231A031D920A231A031E4209C
:10450200A231A131C221A231A1313B21A231A0317C
:10451200CE20A23198310020A231A1310521A23151
:10452200A031F320A231A131F92108004001B001EC
:10453200B101A9012E08A4315E24A23140012C0848
:10454200300784002D08313D850012000319080050
:104552004001A901A90A2C08300784002D08313D29
:1045620085000008A4315E24A23101304001B00769
:104572000030B13D9F2A4001A10050019E18BE2A81
:104582001E174001210850019A0070309B009D01C6
:104592004001200850019C00400103108B1B0314B2
:1045A2008B1350011E1555309F00AA309F009E1498
:1045B2009E18D92A1E114001031C08008B170800FF
:1045C20045344E34473449344E34453445345234FC
:1045D2005334203450342E3420344C345434443444
:1045E20000343034313432343334343435343634C4
:1045F2003734383439343034313432343334343477
:104602003534363437343834393441344C34543414
:104612004F34533400344001200821040319342B51
:10462200A501A50AA11B1F2B0130A035A10D890BE5
:10463200162B0130A4002408A507132B21082302FE
:10464200031D252B20082202031C2B2B2008A2026B
:104652002108A33B0130A136A00C890B2C2B013081
:10466200A502031D1F2B2308A1002208A000080099
:1046720000304001AB000030AA000030A900003039
:10468200A800201C4C2B2408A8072508A93D2608B1
:10469200AA3D2708AB3D0130A435A50DA60DA70DF7
:1046A200890B4D2B0130A336A20CA10CA00C890B57
:1046B200542B2308220421042004031D422B2B081F
:1046C200A3002A08A2002908A1002808A0000800C7
:1046D2004001A601A701200821040319992BA50175
:1046E200A50AA11B7E2B0130A035A10D890B752BCC
:1046F2000130A4002408A507722B0130A635A70DAE
:10470200890B7F2B21082302031D892B20082202FB
:10471200031C902B2008A2022108A33B261401307F
:10472200A136A00C890B912B0130A502031D7E2B13
:104732002708A1002608A00008004001AE003A3078
:104742002E02031CA82B30302E02031C0800A901E4
:10475200A90A0A30A0000030A1002E08AC00AD0169
:104762002C08A2002D08A300A431A824A3314001E3
:104772002008303EA4315E24A3314001A901A90AD8
:104782000A30A0000030A1002E08AC00AD012C08B8
:10479200A2002D08A300A4311824A331400120084F
:1047A200303EA4315E2408004001310830042F0459
:1047B2002E0403190F2CB701B70AB11BEC2B0130E1
:1047C200AE35AF0DB00DB10D890BE12B0130B60046
:1047D2003608B707DE2B31083502031DFA2B3008E5
:1047E2003402031DFA2B2F083302031DFA2B2E0865
:1047F2003202031C042C2E08B2022F08B33B3008ED
:10480200B43B3108B53B0130B136B00CAF0CAE0C45
:10481200890B052C0130B702031DEC2B3508B100C2
:104822003408B0003308AF003208AE00080040017F
:10483200A601A31F232CA209A309A20A0319A30AF2
:10484200A601A60AA11F2A2CA009A109A00A0319E0
:10485200A10A200821040319512CA501A50AA11BB4
:104862003C2C0130A035A10D890B332C0130A40062
:104872002408A507302C21082302031D422C2008FE
:104882002202031C482C2008A2022108A33B01306B
:10489200A136A00C890B492C0130A502031D3C2C2A
:1048A20026080319592CA209A309A20A0319A30A6B
:1048B2002308A1002208A00008004001AB00291C27
:1048C200652C40010D15672C40010D110D080F39A3
:1048D2008D002B08F0390D048D008D150330400139
:1048E200AA009730890B732CAA0B732C003240015B
:1048F2008D1103304001AA009730890B7E2CAA0B40
:104902007E2C003240010D080F398D002B08AA00C1
:104912000330AA35FF3E031D8A2C2A35F0390D04D7
:104922008D008D1503304001AA009730890B972C1A
:10493200AA0B972C003240018D1103304001AA00CE
:104942009730890BA22CAA0BA22C0032080040013E
:10495200A601A11FB32CA009A109A00A0319A10A4B
:10496200A601A60AA31FBE2CA209A309A20A031923
:10497200A30A0130A4002408A606A701A801200862
:1049820021040319ED2CA501A50AA11BD22C01308B
:10499200A035A10D890BC92C0130A4002408A5075C
:1049A200C62C0130A735A80D890BD32C2108230270
:1049B200031DDD2C20082202031CE42C2008A20285
:1049C2002108A33B27140130A136A00C890BE52C4A
:1049D2000130A502031DD22C26080319F52CA709C4
:1049E200A809A70A0319A80A2808A1002708A000F5
:1049F200080000304001AC000030AB000030AA00DB
:104A02000030A90023082204210420040319442DA4
:104A1200AD01AD0AA31B192D0130A035A10DA20DC8
:104A2200A30D890B0E2D0130A8002808AD070B2D10
:104A32000130A935AA0DAB0DAC0D890B1A2D230837
:104A42002702031D2E2D22082602031D2E2D2108CA
:104A52002502031D2E2D20082402031C392D2008B7
:104A6200A4022108A53B2208A63B2308A73B291440
:104A72000130A336A20CA10CA00C890B3A2D0130F7
:104A8200AD02031D192D2C08A3002B08A2002A0831
:104A9200A1002908A00008004001A2010E1C632DFC
:104AA20002304001A1000430A000BA30890B572D1A
:104AB200A00B572DA10B572D000040010E185E2DA3
:104AC200A201A20A0E1E752D82304001A000DD3027
:104AD200890B692DA00B692D003240010E1E752D28
:104AE2000230A0002008A2008E1C872D82304001D7
:104AF200A000DD30890B7B2DA00B7B2D0032400105
:104B02008E1C872D0330A0002008A2000E1D992DB7
:104B120082304001A000DD30890B8D2DA00B8D2D40
:104B2200003240010E1D992D0430A0002008A20081
:104B32009018AF2D02304001A1000430A000BA301D
:104B4200890BA12DA00BA12DA10BA12D00004001CD
:104B5200901CA82D0530A0002008A2008C1AC12D9F
:104B620082304001A000DD30890BB52DA00BB52DA0
:104B7200003240018C1AC12D0730A0002008A2008B
:104B8200220808004001A5008F1741019317400138
:104B920025080319022EA601A70123082702031DD7
:104BA200D42D220826020318FB2D0030A000A100FC
:104BB200A2313522A531400123082702031DE32D2E
:104BC200220826020318EC2D2708A1002608A000BF
:104BD200A2315422A53120304001A4002930890B92
:104BE200F02DA40BF02D003201304001A607003059
:104BF200A73DCE2D2308A1002208A000A2315422F5
:104C020008004001A801A90123082902031D0B2E57
:104C1200220828020318322E0030A000A100A2317F
:104C22005422A531400123082902031D1A2E22080D
:104C320028020318232E2908A1002808A000A23167
:104C42003522A53120304001A4002930890B272EBE
:104C5200A40B272E003201304001A8070030A93DE5
:104C6200052E2308A1002208A000A2313522080047
:104C72004001B601AF1F4A2EAC09AD09AE09AF091A
:104C8200AC0A0319AD0A0319AE0A0319AF0AB60139
:104C9200B60AB31F5B2EB009B109B209B309B00A53
:104CA2000319B10A0319B20A0319B30A0130B40095
:104CB2003408B6060030BA000030B9000030B8003F
:104CC2000030B7002F082E042D042C040319A42E43
:104CD200B501B50AAF1B792E0130AC35AD0DAE0D65
:104CE200AF0D890B6E2E0130B4003408B5076B2E60
:104CF2000130B735B80DB90DBA0D890B7A2E2F08D0
:104D02003302031D8E2E2E083202031D8E2E2D0815
:104D12003102031D8E2E2C083002031C992E2C0802
:104D2200B0022D08B13B2E08B23B2F08B33B37141B
:104D32000130AF36AE0CAD0CAC0C890B9A2E0130A3
:104D4200B502031D792E36080319B22EB709B80928
:104D5200B909BA09B70A0319B80A0319B90A031932
:104D6200BA0A3A08AF003908AE003808AD00370871
:104D7200AC00080030304001AE000030AF003030EF
:104D8200B0000030B1003030B2000030B3002D0866
:104D9200B5002C08B4000A30A0000030A1002D0894
:104DA200A3002C08A200A3310C23A6314001210844
:104DB200B9002008B8000A30A0000030A1002D0878
:104DC200A3002C08A200A3316923A63140012108C7
:104DD200AD002008AC000A30A0000030A1002D0870
:104DE200A3002C08A200A3310C23A6314001210804
:104DF200B7002008B6000A30A0000030A1002D083C
:104E0200A3002C08A200A3316923A6314001210886
:104E1200AD002008AC0000303502643003193402C2
:104E2200031C1A2F2C08303EAE0000302D3DAF007F
:104E3200212F003035020A3003193402031C272FB8
:104E42003608303EB0000030373DB1003808303E01
:104E5200B2000030393DB300A901A90A2E08A431DD
:104E62005E24A6314001A901A90A3008A4315E24BA
:104E7200A6314001A901A90A3208A4315E24080022
:104E82004001A500F42F2208A4002408A600260849
:104E9200A4002408A0000630A231BC22A7310830A9
:104EA2004001A400C930890B542FA40B542F0032A7
:104EB20040012308A4002408A6002608A400240810
:104EC200A0000730A231BC22A73108304001A40063
:104ED200C930890B6A2FA40B6A2F003208004001E7
:104EE2002208A4002408A6002608A4002408A00082
:104EF2000830A231BC22A73108304001A400C930D9
:104F0200890B812FA40B812F003240012308A400BA
:104F12002408A6002608A4002408A0000930A23113
:104F2200BC22A73108304001A400C930890B972F59
:104F3200A40B972F0032080040012208A400240885
:104F4200A6002608A4002408A0000A30A231BC2230
:104F5200A73108304001A400C930890BAE2FA40B41
:104F6200AE2F003240012308A4002408A600260820
:104F7200A4002408A0000B30A231BC22A7310830C3
:104F82004001A400C930890BC42FA40BC42F0032E6
:104F9200080040012208A4002408A6002608A40054
:104FA2002408A0000C30A231BC22A73108304001F5
:104FB200A400C930890BDB2FA40BDB2F00320800C1
:104FC20040012208A4002408A0000D30A231BC2216
:104FD200A73108304001A400C930890BEE2FA40B81
:104FE200EE2F00320800400125088400053004023B
:104FF20003180800A03104351E3E82000800203448
:1050020020342034203420342034203420342034FE
:10501200203420342034203420342034203400340E
:105022004F34503445344E343A3420342034203412
:1050320020342034203420342034203420342034CE
:10504200003443344C344F3453343A342034203413
:1050520020342034203420342034203420342034AE
:10506200203400344434203420342034203420349A
:10507200203420344334203420342034203420346B
:10508200203420340034203420342034203420349E
:1050920041344C3454344F3453342034203420348B
:1050A2002034203420340034483454343A34203408
:1050B200203420342034203454343A342034203400
:1050C2003A34203420342034003445344E344734CA
:1050D20049344E34453445345234533420345034F8
:1050E2002E3420344C3454344434003441346C343F
:1050F2007234653461346434793420344F3470341A
:1051020065346E3400344934523420344F346234BE
:1051120073347434613463346C3465342034003451
:1051220046346F346F3474342034533477346934F2
:10513200743463346834003446346F346F347434F6
:10514200203443346C346F3463346B34003443346E
:1051520075347234723465346E3474343A342034B3
:10516200003442343A34203400344D343A3420345A
:0E5172000034413400344334003453340034EC
:020000040001F9
:0A000E00EC3F3F2F9F3FFF2FFF3F05
:00000001FF
